:100000000C9446000C9465000C9465000C946500FB
:100010000C9465000C9465000C9465000C946500CC
:100020000C9465000C9465000C9465000C946500BC
:100030000C9465000C9465000C9465000C946500AC
:100040000C9465000C9465000C9465000C9465009C
:100050000C9465000C9465000C9465000C9465008C
:100060000C9465000C9465000C9465000C9465007C
:100070000C9465000C9465000C9465000C9465006C
:100080000C9465000C9465000C94650011241FBE4F
:10009000CFEFD0E1DEBFCDBF11E0A0E0B1E0E0E7FF
:1000A000F1E000E00BBF02C007900D92A030B10755
:1000B000D9F711E0A0E0B1E001C01D92A030B10776
:1000C000E1F70E9467000C94B6000C9400008FEFDB
:1000D000809361008091610082B982B181BB81B35C
:1000E00084BB84B387BB87B38ABB6AEF70E010928E
:1000F00062008091620083B983B182BB82B385BB09
:1001000085B388BB88B38BBB2CE030E081E090E006
:100110002AC0FB013197F1F741505040D1F7AC01B3
:100120005695479556954795E42FAC01A3E0569513
:100130004795AA95E1F74E0F409362004091620007
:100140004BBBAC0156954795542FE40FE3B943B12F
:1001500048BB580F52BB42B345BB880F991F215073
:10016000304009F4C4CF40ED57E0D3CFF894FFCF2F
:00000001FF
