:100000000C9446000C9465000C9465000C946500FB
:100010000C9465000C9465000C9465000C946500CC
:100020000C9465000C9465000C9465000C946500BC
:100030000C9465000C9465000C9465000C946500AC
:100040000C9465000C9465000C9465000C9465009C
:100050000C9465000C9465000C9465000C9465008C
:100060000C9465000C9465000C9465000C9465007C
:100070000C9465000C9465000C9465000C9465006C
:100080000C9465000C9465000C94650011241FBE4F
:10009000CFEFD0E1DEBFCDBF12E0A0E0B1E0EAE8F3
:1000A000FDE000E00BBF02C007900D92A83FB10732
:1000B000D9F712E0A8EFB2E001C01D92AA3FB10744
:1000C000E1F70E9459030C94C3060C940000A1E0D0
:1000D000B0E0EDE6F0E00C94B603082F162FF42EF6
:1000E000EE24D82EDA94D40E0FC0CE2CC10E802F61
:1000F0006C2D41E029830E94F4028D2D6C2D41E08E
:100100000E94F402E3942981E21678F3EE24D12EC2
:10011000DA94D20E0DC0CE2CC00E8C2D612F41E092
:100120000E94F4028C2D6D2D41E00E94F402E394B4
:10013000EF1488F32196E8E00C94D2032F923F92BB
:100140005F926F927F928F929F92AF92BF92CF9267
:10015000DF92EF92FF920F931F93CF93DF93A82E1E
:10016000B62EE42EFF24CC27DD27CE19DF09CC0FD5
:10017000DD1F219600E010E031E0232E312CCC244D
:10018000DD245E2C5A0C7C2C7B0C852D672D41E0E8
:100190000E94F4026A2C6E18862D672D41E00E94A1
:1001A000F4027B2C7C18862D672D41E00E94F4021E
:1001B000852D672D41E00E94F4027C2C7A0C6E2C78
:1001C0006B0C872D662D41E00E94F4028A2D8C195C
:1001D000882E662D41E00E94F4029B2D9E19992ED7
:1001E000882D692F41E00E94F402872D692D41E09E
:1001F0000E94F4020894C11CD11C020D131D82E060
:1002000090E0280E391EC801880F991F8C0F9D1F82
:100210001816190634F40894E108F1080C0F1D1F94
:100220002296EC14FD040CF0ACCFDF91CF911F911E
:100230000F91FF90EF90DF90CF90BF90AF909F9085
:100240008F907F906F905F903F902F900895A8E0DF
:10025000B0E0EDE2F1E00C94AC034C015B015C8397
:100260004B833E832D839A01281B390B38872F83BC
:100270000D811E81061B170B2901440C551C3801EA
:10028000660C771C9A838983150137FF0DC0309562
:1002900021953F4F38872F835094419451085394B0
:1002A000EE24EA94FE2C03C061E0E62EF12C17FF49
:1002B0000BC0109501951F4F709461947108739451
:1002C000CC24CA94DC2C03C051E0C52ED12C882D3F
:1002D0006A2D41E00E94F4028F819885009721F4F5
:1002E0000115110531F545C0EF81F885E017F107DB
:1002F00004F15701A80CB91C00E010E0060D171D11
:100300002F8138852017310724F42C0C3D1C04194B
:1003100015098A2D622D41E00E94F402AE0CBF1C2B
:10032000C5018E199F09EB81FC818E179F0731F75C
:1003300020C0AC0CBD1C88249924840C951C081585
:10034000190544F429813A812E0D3F1D3A832983F2
:100350008618970889816A2D41E00E94F402AC0C4E
:10036000BD1CC5018C199D09ED81FE818E179F076B
:1003700021F72896E2E10C94C8030000089581302B
:1003800039F0813018F0823031F404C0AE9808950D
:10039000AD980895AD980895813039F0813018F006
:1003A000823031F404C0AE9A0895AD9A0895AD9AA2
:1003B00008950F931F93182F1ABAA99AAA980E940A
:1003C000BF01A89A000009B3A898812F0E94CC0110
:1003D000802F1F910F9108950F931F93182F062FB1
:1003E000802F0E94D90187FDFBCF8FEF8ABB85B399
:1003F000897F85BB802F0E94BF011BBBA89A00008C
:10040000A898802F0E94CC011F910F9108951F93EF
:100410008091F80282958695869583700E94D90115
:1004200087FDF6CF1ABA85B3866085BB8091F80246
:1004300082958695869583700E94BF01A89A0000D8
:1004400019B3A8988091F802829586958695837055
:100450000E94CC018091F8028F5F8093F802812F77
:100460001F9108951F93182F8091F8028295869509
:10047000869583700E94D90187FDF6CF8FEF8ABBE6
:10048000A998AA9A1BBB8091F802829586958695B9
:1004900083700E94BF01A89A0000A8988091F8027A
:1004A00082958695869583700E94CC018091F80292
:1004B0008F5F8093F8021F91089584B3876684BB91
:1004C00085B3806685BB0895FC01849108950E94E0
:1004D0005D028FE360E00E94EC018FE361E00E9427
:1004E000EC018FE362E00E94EC010895FF920F930C
:1004F0001F93082F162F8093F8026093F90280E46F
:1005000060E00E94EC01186B812F60E00E94EC011A
:1005100080EC60E00E94EC0180E461E00E94EC016C
:10052000812F61E00E94EC0180EC61E00E94EC010F
:10053000F02EF294F694F69483E0F822802F8F73D5
:1005400080646F2D0E94EC01812F6F2D0E94EC01C1
:100550001F910F91FF9008950F931F9310E080E07B
:10056000612F0E94760200E080E00E9432020F5F5D
:100570000038D1F71F5F183091F71F910F91089540
:100580000F931F93CF93DF93805295E089028001F0
:1005900011240F5F1E4FC0E0D0E0C8018C0F9D1FDB
:1005A0000E9464020E9432022196C530D105A9F74B
:1005B00080E00E943202DF91CF911F910F91089548
:1005C000EF92FF92CF93DF93E82EE7017E01F92EA1
:1005D000E70102C00E94C00289918823D9F7DF9108
:1005E000CF91FF90EF900895EF92FF920F931F939A
:1005F000082FF62E162F169516951695612F0E9428
:1006000076020E940702802F612F0E9476020E94CC
:100610000702E82E802F612F0E9476028F2D8770AF
:1006200021E030E002C0220F331F8A95E2F78E2DC1
:10063000822B0E9432021F910F91FF90EF9008953C
:10064000A0E0B0E0E6E2F3E00C94B303EC01162F77
:10065000B42EA22E0695069506959924E22EFF2427
:1006600017C0692D6B0D812F0E947602CE0109C043
:100670006C010894C11CD11C0E9464020E943202C9
:10068000C601282F2C1B2A1598F3CE0DDF1D93943D
:10069000901638F3CDB7DEB7EBE00C94CF0317BA62
:1006A0008FEF88BB809361000E9467020E94AC02BA
:1006B0000895AFEFB0E0EFE5F3E00C94B4031982D6
:1006C0001A821B821C82FE0135968BEFDF011D9280
:1006D0008A95E9F70E944F0380E090E07E0108943C
:1006E000E11CF11C21EEC22E22E0D22E06B310E056
:1006F00008171907D9F35801AA0CBB1CA092620075
:100700000E94AC028DB79EB708970FB6F8949EBFB3
:100710000FBE8DBFEDB7FEB73196ADB7BEB712961F
:10072000FC92EE921197D382C28215830483B78222
:10073000A6820E94E3038DB79EB708960FB6F89481
:100740009EBF0FBE8DBF80E060E00E947602C701B1
:100750000E94E002C801CACF2F923F924F925F924F
:100760006F927F928F929F92AF92BF92CF92DF92C1
:10077000EF92FF920F931F93CF93DF93CDB7DEB726
:10078000CA1BDB0B0FB6F894DEBF0FBECDBF0994BA
:100790002A88398848885F846E847D848C849B8411
:1007A000AA84B984C884DF80EE80FD800C811B811F
:1007B000AA81B981CE0FD11D0FB6F894DEBF0FBE4E
:1007C000CDBFED0108950F931F93DF93CF93CDB766
:1007D000DEB72E970FB6F894DEBF0FBECDBF0D89E2
:1007E0001E8986E08C831A8309838FEF9FE79E839F
:1007F0008D839E01275E3F4FCE0101966F89788DD4
:10080000A9010E941304EF81F885E00FF11F108207
:100810002E960FB6F894DEBF0FBECDBFCF91DF91FD
:100820001F910F9108952F923F924F925F926F9276
:100830007F928F929F92AF92BF92CF92DF92EF9270
:10084000FF920F931F93DF93CF93CDB7DEB72C9713
:100850000FB6F894DEBF0FBECDBF6C011B018A013D
:10086000FC0117821682838181FFD1C12E01089479
:10087000411C511CF6019381F10193FD859193FF79
:1008800081911F01882309F4BEC1853239F493FD9B
:10089000859193FF81911F01853229F490E0B60183
:1008A0000E943906E7CFEE24FF2420E02032B0F486
:1008B0008B3269F08C3228F4803251F0833271F43B
:1008C0000BC08D3239F0803349F421602CC0226096
:1008D000246029C0286027C0206125C027FD2CC0C6
:1008E000382F30533A3098F426FF08C08E2D880FE9
:1008F000E82EEE0CEE0CE80EE30E15C08F2D880FDF
:10090000F82EFF0CFF0CF80EF30E20620CC08E3296
:1009100021F426FD78C1206406C08C3611F42068CD
:1009200002C0883649F4F10193FD859193FF8191CE
:100930001F01882309F0BACF982F9554933018F0EF
:100940009052933028F40C5F1F4FFFE3F9830DC0E2
:10095000833631F0833771F0833509F060C022C0EF
:10096000F801808189830E5F1F4F420171E0A72E3D
:10097000B12C16C062E0662E712C600E711EF8015B
:100980008080918026FF03C06E2D70E002C06FEF63
:100990007FEFC4012C870E942E065C0183012C8509
:1009A0002F7717C052E0652E712C600E711EF80172
:1009B0008080918026FF03C06E2D70E002C06FEF33
:1009C0007FEFC4012C870E9423065C012C852068E0
:1009D000830123FD20C008C080E290E0B6012C878F
:1009E0000E943906FA942C858F2D90E0A816B9063E
:1009F00098F311C0F40127FD859127FF81914F01E4
:100A000090E0B6012C870E9439062C85F110FA94EB
:100A10000894A108B108A114B10461F7F1C08436AB
:100A200011F0893649F527FF08C0F801608171810E
:100A3000828193810C5F1F4F09C0F8016081718131
:100A4000882777FD8095982F0E5F1F4F4FE6B42EB5
:100A5000B22297FF09C090958095709561957F4F60
:100A60008F4F9F4FF0E8BF2AA2012AE030E00E949A
:100A70006506782E741845C0853731F43FEEB32EE5
:100A8000B2222AE030E025C099EFB92EB2228F368B
:100A9000C1F0803720F4883509F0B5C00DC080372B
:100AA00021F0883709F0AFC002C020E1B22AB4FEBD
:100AB0000BC084E0B82A08C0B4FE09C0E6E0BE2A34
:100AC00006C028E030E005C020E130E002C020E1AF
:100AD00032E0B7FE08C0F8016081718182819381A4
:100AE0000C5F1F4F07C0F8016081718180E090E0CA
:100AF0000E5F1F4FA2010E946506782E7418FFE753
:100B0000BF22B6FE0BC02EEFB2227E1438F4B4FE24
:100B100007C0B2FC05C08FEEB82202C0A72C01C0EE
:100B2000AE2C8B2D90E0B4FE0DC0FE01E70DF11D43
:100B30002081203319F4E9EEBE2209C0A394B2FE4D
:100B400006C004C086789070009709F0A3948B2C9F
:100B50009924B3FC14C0B0FE0FC0AF1428F4E72CE6
:100B6000EF0CEA18AF2C08C0E72C06C080E290E03A
:100B7000B6010E943906A394AF14C0F304C0AF14A9
:100B800010F4FA1801C0FF2484FE0FC080E390E047
:100B9000B6010E94390682FE1FC081FE03C088E5AF
:100BA00090E010C088E790E00DC0C4018678907096
:100BB000009791F081FC02C080E201C08BE2B7FC9B
:100BC0008DE290E0B6010E94390606C080E390E015
:100BD000B6010E943906EA947E14C0F37A94F201B9
:100BE000E70DF11D808190E0B6010E943906772063
:100BF000A9F706C080E290E0B6010E943906FA9497
:100C0000FF20C1F737CEF6012681378102C02FEFD2
:100C10003FEFC9012C960FB6F894DEBF0FBECDBFD3
:100C2000CF91DF911F910F91FF90EF90DF90CF90C8
:100C3000BF90AF909F908F907F906F905F904F90FC
:100C40003F902F900895FC01059061507040011075
:100C5000D8F7809590958E0F9F1F0895FC016150E5
:100C6000704001900110D8F7809590958E0F9F1FCE
:100C700008950F931F93CF93DF938C01EB018B812A
:100C800081FF1BC082FF0DC02E813F818C819D8121
:100C90002817390764F4E881F9810193F983E8831F
:100CA00006C0E885F985802F0995009731F48E817B
:100CB0009F8101969F838E8302C00FEF1FEFC801B3
:100CC000DF91CF911F910F910895FA01AA27283043
:100CD00051F1203181F1E8946F936E7F6E5F7F4F09
:100CE0008F4F9F4FAF4FB1E03ED0B4E03CD0670F85
:100CF000781F891F9A1FA11D680F791F8A1F911DD8
:100D0000A11D6A0F711D811D911DA11D20D009F427
:100D100068943F912AE0269F11243019305D319369
:100D2000DEF6CF010895462F4770405D4193B3E052
:100D30000FD0C9F7F6CF462F4F70405D4A3318F0F9
:100D4000495D31FD4052419302D0A9F7EACFB4E0AA
:100D5000A6959795879577956795BA95C9F7009762
:100D60006105710508959B01AC010A2E0694579503
:100D7000479537952795BA95C9F7620F731F841F5A
:0A0D8000951FA01D0895F894FFCF01
:100D8A0001000000000000005F00000007000700EB
:100D9A00147F147F14242A7F2A12231308646236CC
:100DAA00495522500005030000001C224100004161
:100DBA00221C00082A1C2A0808083E08080050308D
:100DCA000000080808080800303000002010080455
:100DDA00023E5149453E00427F4000426151494628
:100DEA002141454B311814127F1027454545393C9E
:100DFA004A494930017109050336494949360649C4
:100E0A0049291E0036360000005636000000081434
:100E1A002241141414141441221408000201510925
:100E2A0006324979413E7E1111117E7F4949493680
:100E3A003E414141227F4141221C7F494949417F2C
:100E4A00090901013E414151327F0808087F0041EA
:100E5A007F41002040413F017F081422417F4040EA
:100E6A0040407F0204027F7F0408107F3E414141D7
:100E7A003E7F090909063E4151215E7F091929462B
:100E8A00464949493101017F01013F4040403F1F26
:100E9A002040201F7F2018207F6314081463030456
:100EAA00780403615149454300007F414102040827
:100EBA00102041417F0000040201020440404040EA
:100ECA0040000102040020545454787F48444438B6
:100EDA003844444420384444487F38545454180809
:100EEA007E090102081454543C7F08040478004423
:100EFA007D40002040443D00007F10284400417F8F
:100F0A0040007C041804787C08040478384444447B
:100F1A00387C14141408081414187C7C0804040877
:100F2A004854545420043F4440203C4040207C1CF8
:100F3A002040201C3C4030403C44281028440C509F
:100F4A0050503C4464544C44000836410000007F31
:100F5A000000004136080008082A1C08081C2A0854
:100F6A0008494E203D20253033642C204F5554200B
:080F7A003D2025303364000026
:00000001FF
